:0E37960081838587898B8D80828486888A8CCA
:0636C800C297C295D297E3
:1036CE00C295E4FEEF139296D295C295EFC313FF07
:0536DE000EEEB408EF40
:0136E30022C4
:10373500E4FEEFC3133096054480FF8001FFD29568
:07374500C2950EEEB408EB83
:01374C00225A
:0A37BD001236C8123735D295C297B4
:0137C70022DF
:0D37A4001236C8AF051236CED295C297225C
:10374D00E4FDED90379693FF1237BD740C2DF8EF15
:06375D00F20DEDB407ECD3
:013763002243
:1033C900C295C297D297E4FD7F8E1237A47F8012EF
:1033D90037A47D597F821237A47D237F841237A4B5
:1033E9007D057F8A1237A47D247F861237A47D0844
:1033F9007F881237A47D157F8C1237A47D807F8E3C
:063409001237A4C2972255
:10000E00300032002D002E00E020F818F8F818F815
:10001E00F818F8F818F818F807041F181F1F181FFB
:10002E001F181F1F181F181F000000003828B84087
:10003E0040404040000000000000000000000F1093
:10004E001010101010000000000000000000707072
:10005E0070000000000000000000000000000E0E06
:10006E000E00000000000000C0C000C0E030180804
:10007E000808F8009088840003030003070C18108A
:10008E0010101F0008102000C0C000C0E0301888FB
:10009E004828F808040201004323100B070E19101C
:1000AE0010101F000000000000F808080808F810E3
:1000BE005090101010FE1010003F212121213F0002
:1000CE0000000112347F000000FD0204F212121231
:1000DE001212F20202FE000000FF00001F111111A9
:1000EE0011111F40C0FF00000506FC0000FE02A219
:1000FE00AABEAAA202FE000000007F20100F000F71
:10010E000808082F607F00000002BA6AFF6ABA0270
:10011E0084472A122E4280000041414141794141DB
:10012E007F494949494941000000FEFE8686868680
:10013E00868686FEFE00000000007F7F60606060A5
:10014E006060607F7F0000000004FE2424FE040037
:10015E0000FE222222FE000048281F09091F2848FF
:10016E00201F0121617F0000E02020FF2020E020E1
:10017E00100F9464649C04008141211F11F94140C9
:10018E00465554FF54544540F010101010F000FC2A
:10019E00162544C4FC0000000704040404070809E3
:1001AE00090909090949FF0000809E92929E80F07C
:1001BE00809EB2D29E0000000000F09090F80403E2
:1001CE0004F89090F0000000000000000000FE0215
:1001DE00FE00000000000000000000001E3F313055
:1001EE00313F1E000000000000C0C0C0C0C0C0C033
:1001FE00C0FCF8F0E0C08000000303030303030318
:10020E00033F1F0F0703010010218670007E4A4A2C
:10021E004A4A4A7E0000000002FE01407F41417FB3
:10022E0041417F41417F40000000FC042424FCA595
:10023E00A6A4FC242424040080601F808042462A49
:10024E0012122A2642C04000000506FC00807C02E5
:10025E00020202027C800000000000FF4120934554
:10026E00291129458300010000001E52525E525290
:10027E00F2525E52521E000000808080FEAAAAAB8F
:10028E00AAAAAAFE8080800000000000000000FEE6
:10029E00101010100000000000805F11111151911C
:1002AE00115191115F80000000101010FE1010FE11
:1002BE0082828282A2BE0000000422617F40205F03
:1002CE0021120C0C122140000000FD02A0A2A2AAD5
:1002DE00F2A2A2A2A202FE0000007F000700000010
:1002EE003F0000042F607F0010082CEA280808C089
:1002FE00404040FE4040C0000101017F61210007E7
:10030E000404047F04040700009088F482808000B7
:10031E00804000FC408000000402017F01020409BD
:10032E004020100B0402010200004044445454FECD
:10033E0054544444400000000000100804027F6042
:10034E002204081C204000000080808082FE8282F1
:10035E00828282FE82808000000040300C0300000A
:10036E000000007F0000000000000010121418F0C2
:10037E00181412100000000000014121110905039C
:10038E0005091121410100000000000000000000DD
:10039E00000000000000000000000000000000004F
:1003AE0000000000000000000000F808080808081F
:1003BE00083FC80A0C08000040300F0101012161FE
:1003CE007F0000472810284000040404FC040404A5
:1003DE00080808FF0808F800004020100F04422209
:1003EE001008060120607F000002FE929292FE022B
:1003FE00B8488808884838000008070402027F01C0
:10040E000804020102040800000408102004E8B0E9
:10041E00A0BEA0A0B0E804000048241249201F048A
:10042E0004040404247F00000000FE929292929233
:10043E009292929292FE000000424448407F4040C9
:10044E0040407F40484442000020202022222222A9
:10045E00E222222220202000000010080403206047
:10046E007F00030408100000000000F088442414EC
:10047E0004040408F000000000000C0B08083828E3
:10048E00283808080B0C0000000000F08844249463
:10049E0044241408F402000000201C0B0C0A392816
:1004AE00283808080B0C00000000000000000000B7
:1004BE00002F000000000700070000147F147F14B7
:1004CE0000242A7F2A12006264081323003649553D
:1004DE00225000000503000000001C224100000015
:1004EE0041221C000014083E08140008083E0808AB
:1004FE00000000A060000008080808080000606006
:10050E000000002010080402003E5149453E000044
:10051E00427F4000004261514946002141454B3126
:10052E00001814127F10002745454539003C4A49F2
:10053E004930000171090503003649494936000664
:10054E004949291E000036360000000056360000CC
:10055E000008142241000014141414140000412247
:10056E00140800020151090600324959513E007C1F
:10057E001211127C007F49494936003E4141412209
:10058E00007F4141221C007F49494941007F0909F2
:10059E000901003E4149497A007F0808087F0000A2
:1005AE00417F4100002040413F01007F081422415D
:1005BE00007F40404040007F020C027F007F040815
:1005CE00107F003E4141413E007F09090906003E71
:1005DE004151215E007F091929460046494949319A
:1005EE000001017F0101003F4040403F001F2040BD
:1005FE00201F003F4038403F00631408146300077B
:10060E000870080700615149454300007F414100D1
:10061E0000552A552A55000041417F000004020171
:10062E00020400404040404000000102040000204F
:10063E0054545478007F484444380038444444208D
:10064E0000384444487F00385454541800087E093A
:10065E0001020018A4A4A47C007F08040478000002
:10066E00447D4000004080847D00007F10284400BF
:10067E000000417F4000007C04180478007C0804D0
:10068E00047800384444443800FC2424241800180C
:10069E00242418FC007C08040408004854545420F8
:1006AE0000043F444020003C4040207C001C204081
:1006BE00201C003C4030403C004428102844001CC4
:1006CE00A0A0A07C004464544C44141414141414BC
:1006DE00000000000000000000000000000000000C
:1006EE00000000F8000000000000003330000000A1
:1006FE0000100C06100C06000000000000000000A8
:10070E0040C07840C0784000043F04043F04040019
:10071E00007088FC08300000001820FF211E000029
:10072E00F008F000E018000000211C031E211E003E
:10073E0000F00888700000001E21232419272110C4
:10074E0010160E0000000000000000000000000067
:10075E00000000E01804020000000007182040000E
:10076E0000020418E00000000040201807000000FE
:10077E00404080F0804040000202010F0102020062
:10078E00000000F0000000000101011F0101010046
:10079E00000000000000000080B0700000000000AB
:1007AE000000000000000000000101010101010134
:1007BE0000000000000000000030300000000000CB
:1007CE0000000000806018040060180601000000A0
:1007DE0000E010080810E000000F102020100F009D
:1007EE00001010F8000000000020203F2020000024
:1007FE00007008080888700000302824222130007C
:10080E0000300888884830000018202020110E0083
:10081E000000C02010F8000000070424243F24002C
:10082E0000F80888880808000019212020110E0001
:10083E0000E0108888180000000F112020110E0013
:10084E0000380808C83808000000003F000000000B
:10085E000070880808887000001C222121221C00CC
:10086E0000E010080810E0000000312222110F00F5
:10087E00000000C0C000000000000030300000008A
:10088E0000000080000000000000806000000000FA
:10089E000000804020100800000102040810200013
:1008AE00404040404040400004040404040404005E
:1008BE0000081020408000000020100804020100F3
:1008CE00007048080808F0000000003036010000F3
:1008DE00C030C828E810E0000718272423140B00A6
:1008EE000000C038E0000000203C23020227382020
:1008FE0008F8888888700000203F202020110E0004
:10090E00C0300808080838000718202020100800FA
:10091E0008F808080810E000203F202020100F00E3
:10092E0008F88888E8081000203F202023201800AF
:10093E0008F88888E8081000203F20000300000017
:10094E00C03008080838000007182020221E0200B8
:10095E0008F808000008F808203F210101213F2077
:10096E00000808F8080800000020203F20200000A2
:10097E0000000808F8080800C08080807F00000092
:10098E0008F888C028180800203F200126382000CB
:10099E0008F8080000000000203F20202020300032
:1009AE0008F8F800F8F80800203F003F003F20004C
:1009BE0008F830C00008F808203F200007183F0054
:1009CE00E01008080810E0000F10202020100F0083
:1009DE0008F808080808F000203F21010101000076
:1009EE00E01008080810E0000F18242438504F00BB
:1009FE0008F8888888887000203F2000030C30207B
:100A0E0000708808080838000038202121221C00B8
:100A1E00180808F8080818000000203F2000000001
:100A2E0008F808000008F808001F202020201F00EA
:100A3E000878880000C83808000007380E0100004A
:100A4E00F80800F80008F800033C0700073C030014
:100A5E00081868808068180820302C03032C30207A
:100A6E000838C800C83808000000203F20000000E9
:100A7E0010080808C8380800203826212020180041
:100A8E00000000FE020202000000007F4040400015
:100A9E00000C30C000000000000000010638C0004D
:100AAE0000020202FE000000004040407F000000F5
:100ABE00000004020202040000000000000000001A
:100ACE000000000000000000808080808080808018
:100ADE000002020400000000000000000000000000
:100AEE0000008080808000000019242222223F20F6
:100AFE0008F8008080000000003F112020110E0039
:100B0E000000008080800000000E112020201100C7
:100B1E00000000808088F800000E112020103F2079
:100B2E000000808080800000001F222222221300FD
:100B3E00008080F0888888180020203F2020000048
:100B4E000000808080808000006B949494936000FD
:100B5E0008F8008080800000203F210000203F2008
:100B6E0000809898000000000020203F2020000008
:100B7E00000000809898000000C08080807F0000F8
:100B8E0008F8000080808000203F24022D302000D5
:100B9E00000808F8000000000020203F2020000080
:100BAE008080808080808000203F20003F20003F9A
:100BBE008080008080800000203F210000203F20A8
:100BCE000000808080800000001F202020201F0059
:100BDE00808000808000000080FFA12020110E0088
:100BEE000000008080808000000E112020A0FF8079
:100BFE00808080008080800020203F212000010026
:100C0E00000080808080800000332424242419007A
:100C1E00008080E0808000000000001F2020000087
:100C2E008080000000808000001F202020103F20C8
:100C3E00808080000080808000010E300806010058
:100C4E0080800080008080800F300C030C300F00FD
:100C5E0000808000808080000020312E0E31200028
:100C6E00808080000080808080818E701806010058
:100C7E0000808080808080000021302C2221300076
:100C8E0000000000807C020200000000003F404097
:100C9E0000000000FF00000000000000FF00000048
:100CAE000002027C800000000040403F0000000077
:100CBE000006010102020404000000000000000012
:100CCE0000E010080810E000000F102020100F00A8
:100CDE00001010F8000000000020203F202000002F
:100CEE000070080808887000003028242221300087
:100CFE0000300888884830000018202020110E008F
:100D0E000000C02010F8000000070424243F240037
:100D1E0000F80888880808000019212020110E000C
:100D2E0000E0108888180000000F112020110E001E
:100D3E0000380808C83808000000003F0000000016
:100D4E000070880808887000001C222121221C00D7
:100D5E0000E010080810E0000000312222110F0000
:100D6E00003E5149453E0000427F40000042615125
:100D7E004946002141454B31001814127F100027BF
:100D8E0045454539003C4A49493000017109050382
:100D9E0000364949493600064949291E0001020319
:100DAE000405060708090A0B0C0D0E0F101112137D
:100DBE001415161718191A1B1C1D1E1F202122236D
:100DCE002425262728292A2B2C2D2E2F303132335D
:080DDE003435363738393A3B51
:0937C800D291D290C290C291226C
:0937D100C291C290D291D2902263
:0735FD00AD071237C87F780B
:10360400E4FEEF30E704D2908002C290D291C291DE
:0F361400EF25E0FF0EEEB408E9D290D291C291FB
:013623002284
:10355500E275F010A42CF582E435F0F583E58224BC
:0C356500DEF582E5833406F583E493FF75
:103571001235FD7F40123604AF051236040237D1F1
:0D36AB0024B0FF1236B87F011236B87F1030
:1036B8001235FDE4FF123604AF051236040237D185
:0A35D500C4540FFBE2FF0808E2FDFA
:1035DF00AC07ED24B0FF1236B8EC54F0C4540F44CE
:0E35EF0010FF1236B8EC540F4401FF0236B83C
:02371B00AC07F9
:10371D00E4FBEB1236ABE4FAAF041235710AEAB4EE
:07372D0080F60BEBB408EB82
:013734002272
:0236E400AC0731
:1036E600ECC394085013EC1236ABE4FBE4FF12353E
:0936F600710BEBB480F60C80E7C7
:0136FF0022A8
:102D07007FF47E0112366B7FAE1236B8E4FF1236BF
:102D1700B37F401236B87F811236B87FCF1236B8EC
:102D27007FA11236B87FC81236B87FA61236B87F91
:102D3700A81236B87F3F1236B87FD31236B8E4FFF1
:102D47001236B87FD51236B87F801236B87FD912BF
:102D570036B87FF11236B87FDA1236B87F121236DC
:102D6700B87FDB1236B87F401236B87F201236B8EC
:102D77007F021236B87F8D1236B87F141236B87FAD
:102D8700A41236B87FA61236B87FAF1236B8E4FF62
:092D970012371BE4FDFF0235DFD9
:0A2FEB007BFF7A0079127D057C005F
:102FF5007880EFF208ECF208EDF208EBF208EAF25D
:0330050008E9F2E5
:10300800E408F2FC08F27883E2FB08E2FA08E2F945
:103018007887E2F582758300122066604F24E07895
:1030280086F27880E2D3947E400DE4F27882E2243E
:1030380001F218E23400F278801235D9E4FC78867F
:10304800E275F006A424B6F582E5F03404F583E5CC
:10305800822CF582E4358312356C0CECB406DF78EB
:0C30680080E22406F27887E204F2809AED
:013074002239
:102DA000787FEFF208ECF208EDF208EBF208EAF2B5
:032DB00008E9F23D
:102DB300E408F2FC08F27882E2FB08E2FA08E2F99E
:102DC3007886E2F582758300122066606824E078D5
:102DD30085F2787FE2D39478400DE4F27881E2249F
:102DE30001F218E23400F2787F1235D9E4FC7885D9
:102DF3001235550CECB408F6787FE2FF0808E204BC
:102E0300FD1235DFE4FC7885E275F010A42CF58221
:102E1300E435F0F583E58224E6F582E58334061292
:102E2300356C0CECB408DF787FE22408F27886E294
:052E330004F2022DB9BC
:012E38002277
:0832C9007B027A007D037C000A
:0932D100787FECF208EDF2A90788
:1032DA00E4FCAE02EB7805C333CE33CED8F9FBAAB1
:1032EA0006AF01787F08E2FD1235DFE4FC74162B85
:1032FA00F58274003A12356C0BBB00010A0CECB46F
:10330A0010EBAF01787F08E204FD1235DFE4FC74AC
:10331A00162BF58274003A12356C0BBB00010A0CAD
:04332A00ECB410EB04
:01332E00227C
:10272B00787FEFF208ECF208EDF208EBF208EAF230
:03273B0008E9F2B8
:10273E00E4FC7887F27882E2FB08E2FA08E2F978A4
:10274E0087E2F58275830012206670030227DD781A
:10275E007FE2D39478400DE4F27881E22401F218FE
:10276E00E23400F27886E2240CF8E2540FFB787F14
:10277E001235D9E4FC75F010EBA42CF582E435F09B
:10278E00F583E58224CEF582E583340C12356C0C8C
:10279E00ECB408E1787FE2FF0808E204FD1235DFB1
:1027AE00E4FC75F010EBA42CF582E435F0F583E52E
:1027BE008224D6F582E583340C12356C0CECB40809
:0F27CE00E1787FE22408F27887E204F2022743E1
:0127DD0022D9
:10289000787FEFF208ECF208EDF208EBF208EAF2CA
:0328A00008E9F252
:1028A300E4FC7887F27882E2FB08E2FA08E2F9783E
:1028B30087E2F582758300122066700302293F7850
:1028C3007FE2D39478400DE4F27881E22401F21898
:1028D300E23400F27886E2240CF8E2787F1235D5F0
:1028E300E4FC75F010EBA42CF582E435F0F583E5F8
:1028F3008224CEF582E583340C12356C0CECB408DB
:10290300E1787FE2FF0808E204FD1235DFE4FC759D
:10291300F010EBA42CF582E435F0F583E58224D6A0
:10292300F582E583340C12356C0CECB408E1787F46
:0C293300E22408F27887E204F20228A8EF
:01293F002275
:1030F700787FEFF208ECF208EDF208EBF208EAF25B
:0331070008E9F2E2
:10310A00E4FC7887F27882E2FB08E2FA08E2F978CE
:10311A0087E2F5827583001220666051787FE2D3D8
:10312A00947E400DE4F27881E22401F218E2340040
:10313A00F27886E2240CF8E2540FFB787F1235D934
:10314A00E4FCEB75F006A4246EF582E4340DF583F5
:10315A00E5822CF582E4358312356C0CECB406E278
:0D316A00787FE22406F27887E204F2809874
:013177002235
:043075007D057C0059
:10307900787FEFF208ECF208EDF208EBF208EAF2D9
:0330890008E9F261
:10308C00E4FC7887F27882E2FB08E2FA08E2F9784D
:10309C0087E2F582758300122066604E787FE2D35A
:1030AC00947E400DE4F27881E22401F218E23400BF
:1030BC00F27886E2240CF8E2787F1235D5E4FCEB4A
:1030CC0075F006A4246EF582E4340DF583E5822CAC
:1030DC00F582E4358312356C0CECB406E2787FE2B1
:0A30EC002406F27887E204F2809BCC
:0130F60022B7
:102C6B007BFF7A00790E7807E27885F2087402F21E
:102C7B007D037C007F181228907BFF7A00790E78F9
:102C8B0006E27885F2087402F27D037C007F201245
:102C9B00272B7F281232C97BFF7A00790E7809E245
:102CAB007885F2087401F27D037C007F381228903E
:102CBB007BFF7A00790E7808E27885F2087401F2CE
:102CCB007D037C007F4012272B7F481232C97BFF8C
:102CDB007A00790E780BE27885F2E408F27D03FC3A
:102CEB007F581228907BFF7A00790E780AE278855C
:0C2CFB00F2E408F27D03FC7F6002272B4E
:102675007BFF7A0079107D057C007F19122FF57B91
:10268500FF7A00790E7D057C007F1F122FF57BFFF9
:102695007A00790E7801E27885F2087406F27F25D2
:1026A5001230757BFF7A00790E7800E27885F208A2
:1026B5007406F27D057C007F2D1230F77F35122FD1
:1026C500EB7BFF7A00790E7803E27885F2087404D3
:1026D500F27F3D1230757BFF7A00790E7802E27841
:1026E50085F2087404F27D057C007F451230F77F82
:1026F5004D122FEB7BFF7A00790E7805E27885F293
:10270500087403F27D057C007F551230797BFF7AD2
:1027150000790E7804E27885F2087403F27D057C71
:06272500007F5D0230F7A9
:102A8800787FEFF208ECF208EDF208EBF208EAF2D0
:032A980008E9F258
:102A9B00E408F2FC08F27882E2FB08E2FA08E2F9B9
:102AAB007886E2F582758300122066607024E078E8
:102ABB0085F2787FE2D39478400DE4F27881E224BA
:102ACB0001F218E23400F27813E224107816F2784F
:102ADB007F1235D9E4FC78161235550CECB408F698
:102AEB00787FE2FF0808E204FD1235DFE4FC78167C
:102AFB00E275F010A42CF582E435F0F583E5822421
:102B0B00E6F582E583340612356C0CECB408DF78FD
:0D2B1B007FE22408F27886E204F2022AA18B
:012B2800228A
:102B2900787FEFF208ECF208EDF208EBF208EAF22E
:032B390008E9F2B6
:102B3C00E408F2FC08F27882E2FB08E2FA08E2F917
:102B4C007886E2F582758300122066607024E07846
:102B5C0085F2787FE2D39478400DE4F27881E22418
:102B6C0001F218E23400F27814E224107817F278AB
:102B7C007F1235D9E4FC78171235550CECB408F6F5
:102B8C00787FE2FF0808E204FD1235DFE4FC7817D9
:102B9C00E275F010A42CF582E435F0F583E582247F
:102BAC00E6F582E583340612356C0CECB408DF785C
:0D2BBC007FE22408F27886E204F2022B4248
:012BC90022E9
:102BCA00787FEFF208ECF208EDF208EBF208EAF28D
:032BDA0008E9F215
:102BDD00E408F2FC08F27882E2FB08E2FA08E2F976
:102BED007886E2F582758300122066607024E078A5
:102BFD0085F2787FE2D39478400DE4F27881E22477
:102C0D0001F218E23400F27815E224107818F27807
:102C1D007F1235D9E4FC78181235550CECB408F652
:102C2D00787FE2FF0808E204FD1235DFE4FC781836
:102C3D00E275F010A42CF582E435F0F583E58224DD
:102C4D00E6F582E583340612356C0CECB408DF78BA
:0D2C5D007FE22408F27886E204F2022BE305
:012C6A002247
:10332F007B017A00E4FDFC7F2E1232D17B0E7A00F6
:10333F00E4FDFCFF1232D17BFF7A00790EE4FDFC35
:10334F007F10122A887BFF7A00790EE4FDFC7F182C
:10335F00122B297BFF7A0079147D017C007F2012CC
:10336F002FF57BFF7A00790EE4FDFC7F26022BCA36
:1029E500787FEFF208ECF208EDF208EBF208EAF274
:0329F50008E9F2FC
:1029F800E47887F2FC08F27882E2FB08E2FA08E25F
:102A0800F97888E2F5827583001220666071787F14
:102A1800E2D39478400DE4F27881E22401F218E2DE
:102A28003400F27886E2900DAA9375F00A84241097
:102A3800FB787F1235D9E4FC75F010EB1235590C90
:102A4800ECB408F4787FE2FF0808E204FD1235DFF1
:102A5800E4FC75F010EBA42CF582E435F0F583E581
:102A68008224E6F582E583340612356C0CECB40852
:0F2A7800E1787FE22408F27888E204F20229FF75
:012A8700222C
:10294000787FEFF208ECF208EDF208EBF208EAF219
:0329500008E9F2A1
:10295300E47887F2FC08F27882E2FB08E2FA08E204
:10296300F97888E2F5827583001220666073787FB8
:10297300E2D39478400DE4F27881E22401F218E284
:102983003400F27886E2900DAA9375F00A84E5F09C
:102993002410FB787F1235D9E4FC75F010EB123567
:1029A300590CECB408F4787FE2FF0808E204FD1246
:1029B30035DFE4FC75F010EBA42CF582E435F0F57B
:1029C30083E58224E6F582E583340612356C0CEC4C
:1029D300B408E1787FE22408F27888E204F202295D
:0129E3005A99
:0129E40022D0
:103494001233C9122D0712377712374D122C6B12C3
:1034A400267512326212345512337F1220F6123608
:1034B4008BC2927F327E0012366BD2921234F68027
:0134C400D82F
:10377700758901758C47758AA0D2AFD2A9D28C22E0
:03000B0002364A70
:10364A00C0E0C0D075D000C000758C47758AA078DC
:10365A0022E2B40105785EE204F2D000D0D0D0E0D4
:01366A00322D
:10366B00D3EF9400EE6480948040147D6E7C00ED6B
:0F367B001D70011CED4C70F7EF1F70E41E80E115
:01368A00221D
:0C2ECE00814B00814800814900814A00CE
:043764007FF07E0074
:0F376800EF1FAC0670011E4C6004000080F222BF
:10358100D2A27F087E00123768C2A21237641237B6
:1035910064D2A27F3C7E00123768A2A2E433787F16
:0B35A100F21237647FB47E000237682E
:0234C500AD0751
:1034C700E4FBFAC2A27F017E00123768ED1392A2D5
:1034D7007F3C7E00123768D2A2EDC313FD0BBB0001
:0F34E700010AEB64084A70DB7F017E0002376840
:10352600E4FDFBC2A2EDC313FD7F017E00123768E6
:10353600D2A27F017E0012376830A204ED4480FDDE
:0E3546007F3C7E001237680BEBB408D7AF0550
:013554002254
:10317800E4FAFF1235817FCC1234C57F441234C57E
:103188007FE87E031237681235817FCC1234C57F01
:10319800BE1234C57FE87E03123768123526AA07A7
:1031A800123526EFC454F07849F2EA54F0C4540FAB
:1031B800FEE22EF2EA540F08F2FDEFFEAC02EC7AC2
:1031C800002400FFEA3EC4F854F0C8EFC4540F4886
:1031D8007848F2AC05E4121FB1E4FBFA7920783F95
:0A31E800121EA1121FE5784BEFF252
:0131F20022BA
:1035AC001231787848E2FF75F00A847813F2784C7F
:1035BC00F2EF75F00A84AFF07814EFF2784DF278F0
:0935CC004BE27815F2784EF22270
:1034F600784CE2FFC39402400C08E29408400608A8
:10350600E294005006EFC394044012C2A37FB87E33
:103516000B12366BD2A37FB87E0B02366BD2A32278
:10362400E4787FF2C294C2A37FD07E0712366BD2B5
:1036340094D2A37FD07E0712366B787FE204F2E245
:05364400C3940A40DF01
:01364900225E
:103700005072657373002000416E79004B657973C8
:0B3710000031002E00320033003400B6
:10326200E4787FF27BFF7A3779007D077C007F1854
:10327200122FF57BFF7A3779067D077C007F3612A5
:103282002FF57BFF7A3779087D077C007F3C122F70
:10329200F57BFF7A3779067D077C007F4E122FF58A
:1032A2007BFF7A37790C7D077C007F54122FF57FE4
:1032B200F47E0112366B7F071236E4787FE204F265
:0632C200E2C39408409EE7
:0132C80022E3
:102585007BFF7A377911E4FDFC7F14122DA07BFFC8
:102595007A377913E4FDFC7F1C122DA07B057A00A8
:1025A500E4FDFC7F241232D17B067A00E4FDFC7F3A
:1025B500341232D17B127A00E4FDFC7F441232D111
:1025C5007B137A00E4FDFC7F541232D17BFF7A370E
:1025D50079157D037C007F14122DA07BFF7A377956
:1025E500137D037C007F1C122DA07B097A007D03DF
:1025F5007C007F241232D17B0A7A007D037C007F28
:10260500341232D17B077A007D037C007F4412327D
:10261500D17B087A007D037C007F541232D17BFF89
:102625007A3779177D067C007F14122DA07BFF7AFF
:102635003779137D067C007F1C122DA07B107A0054
:102645007D067C007F241232D17B117A007D067CC9
:10265500007F341232D17B077A007D067C007F44EF
:102665001232D17B087A007D067C007F540232D17C
:102386007BFF7A377911E4FDFC7F14122DA07BFFC9
:102396007A377913E4FDFC7F1C122DA07B057A00A9
:1023A600E4FDFC7F241232D17B067A00E4FDFC7F3B
:1023B600341232D17B077A00E4FDFC7F441232D11D
:1023C6007B087A00E4FDFC7F541232D17BFF7A371A
:1023D60079157D027C007F14122DA07BFF7A377958
:1023E600137D027C007F1C122DA07B087A007D02E3
:1023F6007C007F241232D17B147A007D027C007F20
:10240600341232D17B157A007D027C007F44123271
:10241600D17B057A007D027C007F541232D17BFF8E
:102426007A3779177D047C007F14122DA07BFF7A02
:102436003779137D047C007F1C122DA07B167A0051
:102446007D047C007F241232D17B177A007D047CC8
:10245600007F341232D17BFF7A3779197D067C00F2
:102466007F14122DA07BFF7A3779137D067C007FBF
:102476001C122DA07B187A007D067C007F24123268
:0E248600D17B197A007D067C007F340232D1B2
:0F378700320030002020202020202020002E00A3
:102EDA0081760081520081540081770081590081F6
:102EEA005A00817800815E00815800817E00814FFE
:102EFA0000817D00816A00816B00816C00816E0017
:102F0A00816D00816F00817300817400817000817E
:102F1A007100816900816700815F00817500815CB1
:102F2A0000815D00817B00817C00816100816200FB
:102F3A00815B008172008160008168008163008189
:102F4A0064008157008156008150008151008165DB
:042F5A00008166008C
:1027DE0020B41D7F057E0012366B20B410C2937F8D
:1027EE00057E0012366BD2937877E204F230B4FD98
:1027FE007877E2B4012A7B0F7A00E4FDFCFF1232F7
:10280E00D17B1C7A007D037C00E4FF1232D17B1C4D
:10281E007A007D067C00E4FF1232D178767401F2E4
:10282E007877E2B4022A7B0F7A007D037C00E4FF06
:10283E001232D17B1C7A00E4FDFCFF1232D17B1CDC
:10284E007A007D067C00E4FF1232D178767402F2B3
:10285E007877E26403702A7B0FFA7D06FCFF123252
:10286E00D17B1C7A007D037C00E4FF1232D17B1CED
:10287E007A00E4FDFCFF1232D178767403F2E4089C
:02288E00F22234
:1022740020B41D7F057E0012366B20B410C2937FFC
:10228400057E0012366BD2937859E204F230B4FD25
:102294007859E2640170357B0FFAFDFCFF1232D1EC
:1022A4007B1C7A007D027C00E4FF1232D17B1C7A15
:1022B400007D047C00E4FF1232D17B1C7A007D0691
:1022C4007C00E4FF1232D178527401F27859E2644E
:1022D4000270347B0FFA7D02FCFF1232D17B1C7A30
:1022E40000E4FDFCFF1232D17B1C7A007D067C00E9
:1022F400E4FF1232D17B1C7A007D047C00E4FF12DF
:1023040032D178527402F27859E2640370347B0F4C
:10231400FA7D04FCFF1232D17B1C7A007D027C0022
:10232400E4FF1232D17B1C7A00E4FDFCFF1232D1AF
:102334007B1C7A007D067C00E4FF1232D178527453
:1023440003F27859E2640470387B0FFA7D06FCFFCF
:102354001232D17B1C7A00E4FDFCFF1232D17B1CCB
:102364007A007D027C00E4FF1232D17B1C7A007D6E
:10237400047C00E4FF1232D178527404F2E47859F8
:02238400F22243
:1031F30020B41D7F057E0012366B20B410C2937F6E
:10320300057E0012366BD293785AE204F230B4FD95
:10321300785AE2B4011F7B0F7A007D027C00E4FF41
:103223001232D17B1C7A007D057C00E4FF1232D17F
:1032330078547401F2785AE2B402237B0F7A007D4A
:10324300057C00E4FF1232D17B1C7A007D027C00F6
:0F325300E4FF1232D178547402F2E4785AF22276
:1034550020B53B7F057E0012366B20B531E4FF12A7
:1034650036E478787401F27878E2B4011B12258588
:103475001227DE12340F20B6EE7F057E0012366B62
:0F34850020B6E4E4FF1236E4E47877F218F2227E
:100DE6007876E26402600302142930B503021429FE
:100DF6007F0AFE12366B30B503021429E4FF123661
:100E0600E412374D1226757876E264026003021406
:100E16002920B4237F0AFE12366B20B417C2937FB3
:100E26000A7E0012366BD2937860E204F2E2B404D2
:100E3600037401F230B4FD7860E264016003020ECF
:100E4600FB30B303020EFB7F0AFE12366B30B30390
:100E5600020EF8C2937F327E0012366BD29378125E
:100E6600E2FFC4540FFE7867F2EF540FFFEE75F001
:100E76000AA42F7812F2C394635005E204F28004A8
:100E8600E47812F27812E2FF7864F2EF75F00A84E1
:100E9600FF7867F27812E275F00A84EFC454F02501
:100EA600F0F27BFF7A3779877D057C007F19122F58
:100EB600F57BFF7A3779897D057C007F1F122FF538
:100EC6007BFF7A3779897851E27885F2087406F2E1
:100ED6007D057C007F251230797BFF7A377989780A
:100EE60050E27885F2087406F27D057C007F2D12AB
:100EF60030F730B3FD7860E264016003020FBA3068
:100F0600B703020FBA7F0AFE12366B30B703020F21
:100F1600B7C2937F327E0012366BD2937812E2FF0D
:100F2600C4540FFE7867F2EF540FFFEE75F00AA473
:100F36002F7812F2D394004005E214F2800578125D
:100F46007463F27812E2FF7864F2EF75F00A84FFB8
:100F56007867F27812E275F00A84EFC454F025F04F
:100F6600F27BFF7A3779877D057C007F19122FF592
:100F76007BFF7A3779897D057C007F1F122FF57BF1
:100F8600FF7A3779897851E27885F2087406F27D1E
:100F9600057C007F251230797BFF7A377989785076
:100FA600E27885F2087406F27D057C007F2D12300A
:100FB600F730B7FD7860E26402600302105B30B37D
:100FC6000302105B7F0AFE12366B30B30302105821
:100FD600C2937F327E0012366BD2937810E2FFC442
:100FE600540FFE7867F2EF540FFFEE75F00AA42F48
:100FF6007810F2C3940C5005E204F2800578107460
:1010060001F27810E2FF7863F2EF75F00A84FF7858
:1010160067F27810E275F00A84EFC454F025F0F216
:101026007BFF7A3779897857E27885F2087404F27B
:101036007D057C007F3D1230797BFF7A3779897890
:1010460056E27885F2087404F27D057C007F45122D
:1010560030F730B3FD7860E2640260030210FC30C2
:10106600B7030210FC7F0AFE12366B30B70302107C
:10107600F9C2937F327E0012366BD2937810E2FF6C
:10108600C4540FFE7867F2EF540FFFEE75F00AA412
:101096002F7810F2D394014005E214F280057810FF
:1010A600740CF27810E2FF7863F2EF75F00A84FFB1
:1010B6007867F27810E275F00A84EFC454F025F0F0
:1010C600F27BFF7A3779897857E27885F2087404DB
:1010D600F27D057C007F3D1230797BFF7A37798976
:1010E6007856E27885F2087404F27D057C007F4527
:1010F6001230F730B7FD7860E264036003021239FC
:1011060030B3030212397F0AFE12366B30B3030284
:101116001236C2937F0A7E0012366BD293780FE2A4
:10112600FFC4540FFE7867F2EF540FFFEE75F00A16
:10113600A42F780FF27863E2FF6401601DEF640369
:101146006018EF64056013EF6407600EEF640860D3
:1011560009EF640A6004EFB40C14780FE2C394201C
:10116600500CE204F2E26420707704F28073786433
:10117600E2FF7E007C017D90122093EF4E701A787C
:1011860063E2B40214780FE2C3941D500CE204F239
:10119600E2641D704C04F28048EF4E601A7863E2F8
:1011A600B40214780FE2C3941E500CE204F2E26417
:1011B6001E702E04F2802A780FE2C3941F50227804
:1011C60063E2FF6404600EEF64066009EF64096081
:1011D60004EFB40B0C780FE204F2E2B41F037401BF
:1011E600F2780FE2FF7868F2EF75F00A84FF18F2E2
:1011F600780FE275F00A84EFC454F025F0F27BFF15
:101206007A3779897866E27885F2087403F27D0583
:101216007C007F551230797BFF7A3779897865E2D1
:101226007885F2087403F27D057C007F5D1230F745
:1012360030B3FD7860E26403600302137730B703CE
:101246000213777F0AFE12366B30B70302136FC2A2
:10125600937F0A7E0012366BD293780FE2FFC45456
:101266000FFE7867F2EF540FFFEE75F00AA42F78A1
:101276000FF27863E2FF6401601DEF64036018EF0C
:1012860064056013EF6407600EEF64086009EF649D
:101296000A6004EFB40C13780FE2D39400400BE21B
:1012A60014F2E27075741FF280707864E2FF7E00BB
:1012B6007C017D90122093EF4E70197863E2B402A0
:1012C60013780FE2D39400400BE214F2E2704B74F1
:1012D6001CF28046EF4E60197863E2B40213780F71
:1012E600E2D39400400BE214F2E2702E741DF280F9
:1012F60029780FE2D3940040217863E2FF6404600A
:101306000EEF64066009EF64096004EFB40B0B7816
:101316000FE214F2E27003741EF2780FE2FF7868AF
:10132600F2EF75F00A84FF18F2780FE275F00A847E
:10133600EFC454F025F0F27BFF7A3779897866E2BC
:101346007885F2087403F27D057C007F55123079AA
:101356007BFF7A3779897865E27885F2087403F23B
:101366007D057C007F5D1230F730B703020E0D80DD
:10137600F820B65D7860E2640170567F0AFE123688
:101386006B30B603020E0DC2937F0A7E0012366BD7
:10139600D293E4FD7F8E1237A47812E2FD7F8C1281
:1013A60037A47810E2FD7F881237A4780FE2FD7F1C
:1013B600861237A47D807F8E1237A4E4FF1236E4AE
:1013C6007B1D7A007D047C007F301232D17B1E802B
:1013D6003B30B603020E0D7860E264026003020E33
:1013E6000D7F0AFE12366B30B603020E0DC2937FD6
:1013F6000A7E0012366BD293E4FF1236E47B1F7A24
:10140600007D047C007F301232D17B207A007D047F
:101416007C007F421232D17F707E1712366BE4FF5A
:041426001236E42274
:102E39007876E264036003022ECD30B503022ECD0D
:102E49007F0AFE12366B20B57BE4FF1236E47B2144
:102E59007A007D027C007F181232D17B227A007DB4
:102E6900027C007F281232D17B1F7A007D057C000D
:102E79007F181232D17B207A007D057C007F2812D1
:102E890032D17876E26403703B1231F320B6F37FD6
:102E99000A7E0012366B20B6E9E4FF1236E47B1D88
:102EA9007A007D047C007F321232D17B1E7A007D4C
:102EB900047C007F4E1232D17F707E1712366BE48C
:052EC900FF1236E422B7
:10368B007854E2B401061235AC12332F7854E2B4FD
:10369B00020D7BFF7A37798BE4FDFCFF122DA02204
:10340F007876E26401703920B5367F05FE12366B8F
:10341F0020B52DE4FF1236E47876E2B4011B1223B7
:10342F00861222741237B120B6EE7F057E00123657
:10343F006B20B6E4E4FF1236E4E47859F27852F2E6
:06344F00120DE6022E3909
:0C37B1001217DC122494121B5802142A78
:1017DC007852E264016003021B5730B503021B57B9
:1017EC007F0AFE12366B30B503021B57E4FF12362C
:1017FC00E478697401F212374DE4780CF2122C6B18
:10180C007852E264016003021B5720B41C7F0AFE6D
:10181C0012366B20B410C2937F0A7E0012366BD244
:10182C00937869E2F4F230B4FD30B3030218D67841
:10183C0069E2640160030218D67F0AFE12366B302F
:10184C00B3030218CEC2937F0A7E0012366BD2937A
:10185C00780EE2FFC4540FFE7867F2EF540FFFEEE0
:10186C0075F00AA42F780EF2C394175005E204F217
:10187C008004E4780EF2780EE2FF75F00A84FE78AC
:10188C0067F2EF75F00A84EEC454F025F0780EF28E
:10189C007BFF7A3779897855E27885F2087402F201
:1018AC007D037C007F181228907BFF7A377989782A
:1018BC0053E27885F2087402F27D037C007F2012DB
:1018CC00272B30B30302180C80F830B303021977BE
:1018DC007869E264FE60030219777F0AFE12366BA8
:1018EC0030B30302196FC2937F0A7E0012366BD29B
:1018FC0093780DE2FFC4540FFE7867F2EF540FFF9C
:10190C00EE75F00AA42F780DF2C3943B5005E20457
:10191C00F28004E4780DF2780DE2FF75F00A84FE93
:10192C007867F2EF75F00A84EEC454F025F0780D68
:10193C00F27BFF7A377989787AE27885F20874013C
:10194C00F27D037C007F381228907BFF7A377989EF
:10195C007879E27885F2087401F27D037C007F408F
:10196C0012272B30B30302180C80F830B703021A7D
:10197C00197869E264016003021A197F0AFE1236B3
:10198C006B30B703021A11C2937F0A7E0012366BBA
:10199C00D293780EE2FFC4540FFE7867F2EF540F27
:1019AC00FFEE75F00AA42F780EF2D394004005E2F6
:1019BC0014F28005780E7417F2780EE2FF75F00AB7
:1019CC0084FE7867F2EF75F00A84EEC454F025F0CB
:1019DC00780EF27BFF7A3779897855E27885F208B0
:1019EC007402F27D037C007F181228907BFF7A37FB
:1019FC0079897853E27885F2087402F27D037C00D1
:101A0C007F2012272B30B70302180C80F830B70355
:101A1C00021ABB7869E264FE6003021ABB7F0AFEFD
:101A2C0012366B30B703021AB3C2937F0A7E0012D0
:101A3C00366BD293780DE2FFC4540FFE7867F2EF49
:101A4C00540FFFEE75F00AA42F780DF2D3940040DA
:101A5C0005E214F28005780D743BF2780DE2FF7507
:101A6C00F00A84FE7867F2EF75F00A84EEC454F045
:101A7C0025F0780DF27BFF7A377989787AE27885D0
:101A8C00F2087401F27D037C007F381228907BFFF2
:101A9C007A3779897879E27885F2087401F27D03D6
:101AAC007C007F4012272B30B70302180C80F820E3
:101ABC00B6527869E26401704B7F0AFE12366B30C5
:101ACC00B60302180CE4FD7F8E1237A4780EE2FDEB
:101ADC007F841237A4780DE2FD7F821237A4780C34
:101AEC00E2FD7F801237A47D807F8E1237A4E4FF45
:101AFC001236E47B1D7A007D047C007F301232D1DB
:101B0C007B1E803030B60302180C7869E264FE60EC
:101B1C000302180C7F0AFE12366B30B60302180C47
:101B2C00E4FF1236E47B1F7A007D047C007F3012C8
:101B3C0032D17B207A007D047C007F421232D17F2F
:0C1B4C00707E1712366BE4FF1236E422A4
:102494007852E26402600302258430B50302258485
:1024A4007F0AFE12366B30B503022584E4FF123630
:1024B400E47B1A7A007D027C007F141232D17B1BEC
:1024C4007A007D057C007F141232D17852E26402D6
:1024D400600302258420B4237F0AFE12366B20B4E5
:1024E40017C2937F0A7E0012366BD293785FE204A0
:1024F400F2E2B403037401F230B4FD785FE2B40194
:102504001F7B0F7A007D027C00E4FF1232D17B1C1A
:102514007A007D057C00E4FF1232D178757401F2F3
:10252400785FE2B4021F7B0F7A007D057C00E4FF34
:102534001232D17B1C7A007D027C00E4FF1232D17E
:1025440078757402F220B6837F0A7E0012366B30EF
:10255400B6030224CFE4FF1236E47B1D7A007D0427
:102564007C007F301232D17B1E7A007D047C007F98
:10257400421232D17F707E1712366BE4FF1236E4BA
:012584002234
:10337F007B1C7A00E4FDFC7F5A1232D17875E2B4DF
:10338F0001187B237A00E4FDFC7F5A1232D1780DAD
:10339F00E2700718E270031236247875E2B402194E
:1033AF007B247A00E4FDFC7F5A1232D1780DE27053
:0A33BF000818E27004D294D2A32291
:101B58007852E264036003021EA030B503021EA09F
:101B68007F0AFE12366B30B503021EA0E4FF123660
:101B7800E47BFF7A377989785CE27885F2787CE2D1
:101B88007886F27D037C007F281229E57BFF7A376F
:101B98007989785DE27885F2787CE27886F27D034F
:101BA8007C007F301229407B027A007D037C007F15
:101BB800381232D17BFF7A3779897861E27885F2F9
:101BC800787BE27886F27D037C007F481229E57BEA
:101BD800FF7A3779897862E27885F2787BE27886CD
:101BE800F27D037C007F501229407B1A7A007D0623
:101BF8007C007F141232D17B1B7A007D067C007F2B
:101C0800641232D17852E264036003021EA020B449
:101C1800237F0AFE12366B20B417C2937F0A7E0018
:101C280012366BD293785BE204F2E2B405037401D6
:101C3800F230B4FD785BE26401705620B3537F0A3A
:101C4800FE12366B20B347787CE2C394175005E246
:101C580004F28004E4787CF27BFF7A377989785C37
:101C6800E27885F2787CE27886F27D037C007F2832
:101C78001229E57BFF7A377989785DE27885F278F1
:101C88007CE27886F27D037C007F3012294030B3F5
:101C9800FD785BE26401705720B7547F0AFE123664
:101CA8006B20B748787CE2D394004005E214F280B8
:101CB80005787C7417F27BFF7A377989785CE2784B
:101CC80085F2787CE27886F27D037C007F281229F1
:101CD800E57BFF7A377989785DE27885F2787CE26E
:101CE8007886F27D037C007F3012294030B7FD787A
:101CF8005BE26402705620B3537F0AFE12366B20F3
:101D0800B347787BE2C3943B5005E204F28004E4D5
:101D1800787BF27BFF7A3779897861E27885F27887
:101D28007BE27886F27D037C007F481229E57BFF01
:101D38007A3779897862E27885F2787BE27886F278
:101D48007D037C007F5012294030B3FD785BE2644C
:101D580002705720B7547F0AFE12366B20B74878B6
:101D68007BE2D394004005E214F28005787B743B53
:101D7800F27BFF7A3779897861E27885F2787BE2BD
:101D88007886F27D037C007F481229E57BFF7A374D
:101D980079897862E27885F2787BE27886F27D0349
:101DA8007C007F5012294030B7FD785BE2B4031FF6
:101DB8007B0F7A007D067C00E4FF1232D17B1C7A0F
:101DC800007D067C007F541232D178727401F2785B
:101DD8005BE2B4041F7B0F7A007D067C007F5412FF
:101DE80032D17B1C7A007D067C00E4FF1232D17868
:101DF800727402F2785BE2FF64016004EFB4021AC5
:101E08007B1C7A007D067C00E4FF1232D17B1C7AB1
:101E1800007D067C007F541232D120B62D7F0A7EC9
:101E28000012366B20B623785BE2FF64016005EF91
:101E380064027016E4FF1236E47B1F7A007D047C8E
:101E4800007F301232D17B20803730B603021C0C61
:101E5800785BE2FF64046008EF64036003021C0C13
:101E68007F0A7E0012366B30B603021C0CE4FF12A8
:101E780036E47B1D7A007D047C007F301232D17BF2
:101E88001E7A007D047C007F501232D17F707E174D
:091E980012366BE4FF1236E4225D
:1020F600780DE2FFC4540FFE7867F2EF540FFFEE3F
:1021060075F00AA42F780DF208E2FFC4540FFE788A
:1021160067F2EF540FFFEE75F00AA42F780EF27BEC
:102126001C7A00E4FDFC7F6E1232D17872E2640103
:10213600600302224A7B03FAFDFC7F6E1232D178DD
:102146007CE2FF780EE26F600302224A787BE2FFB0
:10215600780DE26F600302224AE2FF75F00A84FE00
:102166007867F2EF75F00A84EEC454F025F0780D26
:10217600F208E2FF75F00A84FE7867F2EF75F00A5E
:1021860084EEC454F025F0780EF27872E2640160B1
:102196000302224A7F031236E47BFF7A3779897875
:1021A60055E27885F2087402F27D037C007F1E12E8
:1021B60028907BFF7A3779897853E27885F208741C
:1021C60002F27D037C007F2612272B7B027A007D9C
:1021D600037C007F2E1232D17BFF7A377989787A99
:1021E600E27885F2087401F27D037C007F3E1228B6
:1021F600907BFF7A3779897879E27885F2087401DD
:10220600F27D037C007F4612272B1236247FE87E60
:102216000312366B30B6030221907F0A7E00123617
:102226006B30B603022190787CE204F218E204F2E5
:1022360008E2B41802E4F2787BE2B43C02E4F2E489
:10224600FF1236E47872E2640270227B04FAFDFC27
:102256007F6E1232D1787CE2FF780EE2B5070E78F7
:0E2266007BE2FF780DE2B50704D294D2A322EA
:10142A007852E2640460030217DB30B5030217DB6B
:10143A007F05FE12366B30B5030217DBE4FF123666
:10144A00E47BFF7A377989E4FDFC7F24122DA07BA7
:10145A00FF7A377989E4FDFC7F2C122DA07BFF7A75
:10146A00377994E4FDFC7F34122DA07BFF7A37791B
:10147A0089E4FDFC7F3C122DA07BFF7A377989E451
:10148A00FDFC7F44122DA07BFF7A377994E4FDFCA2
:10149A007F4C122DA07BFF7A377989E4FDFC7F54BB
:1014AA00122DA07BFF7A377989E4FDFC7F5C122D2F
:1014BA00A07852E2640460030217DB20B4237F059C
:1014CA00FE12366B20B417C2937F327E0012366B3F
:1014DA00D2937858E204F2E2B403037401F230B40E
:1014EA00FD7858E26401702D785EE264147026F289
:1014FA00787EE204F2E2B43C07E4F2784FE204F2C6
:10150A00784FE2B43C07E4F2787DE204F2787DE2B7
:10151A00B43C02E4F220B3167F057E0012366B203B
:10152A00B309E4784FF2787EF218F230B3FD7BFF0C
:10153A007A377989786FE27885F2787DE27886F26F
:10154A00E4FDFC7F241229E57BFF7A3779897874D8
:10155A00E27885F2787DE27886F2E4FDFC7F2C124F
:10156A0029407BFF7A3779897874E27885F2784F57
:10157A00E27886F2E4FDFC7F3C1229E57BFF7A37AC
:10158A0079897873E27885F2784FE27886F2E4FD19
:10159A00FC7F441229407BFF7A3779897871E27897
:1015AA0085F2787EE27886F2E4FDFC7F541229E522
:1015BA007BFF7A3779897870E27885F2787EE278EB
:1015CA0086F2E4FDFC7F5C1229407F147E0012360D
:1015DA006B30B7030217B97F057E0012366B30B73E
:1015EA00030217B6786AE204F2E2B40402E4F2787B
:1015FA006AE2640160030216D2787DE2786BF2FF38
:10160A00784FE2786CF2787EE2786EF27BFF7A3776
:10161A00798908E27885F208EFF27D047C007F245C
:10162A001229E57BFF7A377989786DE27885F27835
:10163A006BE27886F27D047C007F2C1229407BFFC6
:10164A007A3779947D047C007F34122DA07BFF7A4F
:10165A003779897874E27885F2786CE27886F27D57
:10166A00047C007F3C1229E57BFF7A3779897873FD
:10167A00E27885F2786CE27886F27D047C007F4419
:10168A001229407BFF7A3779947D047C007F4C12C3
:10169A002DA07BFF7A3779897871E27885F2786EA6
:1016AA00E27886F27D047C007F541229E57BFF7A7A
:1016BA003779897870E27885F2786EE27886F27DF9
:1016CA00047C007F5C122940786AE26402600302AB
:1016DA0017AB787DE2786BF2FF784FE2786CF2789C
:1016EA007EE2786EF27BFF7A37798908E27885F2B2
:1016FA0008EFF27D067C007F241229E57BFF7A370A
:10170A007989786DE27885F2786BE27886F27D06DF
:10171A007C007F2C1229407BFF7A3779947D067CE6
:10172A00007F34122DA07BFF7A3779897874E278AA
:10173A0085F2786CE27886F27D067C007F3C12297D
:10174A00E57BFF7A3779897873E27885F2786CE2FB
:10175A007886F27D067C007F441229407BFF7A3727
:10176A0079947D067C007F4C122DA07BFF7A377915
:10177A00897871E27885F2786EE27886F27D067C65
:10178A00007F541229E57BFF7A3779897870E278ED
:10179A0085F2786EE27886F27D067C007F5C1229FB
:1017AA0040786AE2B403057F041236E430B7FD30AC
:1017BA00B6030214BB7F057E0012366B30B60302F5
:1017CA0014BBE4FF1236E4E4787EF2784FF2787DB7
:0217DA00F222F9
:101EA100EC4D6011E8497017ED33EC3304600DE43B
:101EB100FCFFFEFD22E933E8330470F802205112E1
:101EC100201C58046009E4CC2481500628500902E2
:101ED100205B284003022058C0E0EB4A7044B980DF
:101EE10006D0E0FB022047EF4E701CBD8008EBFFDF
:101EF100EAFEE9FD80EBE98DF0A4FEE5F0021F8A20
:101F0100E9CDF9EAFEEBFFEF89F0A4FCE5F0CE891B
:101F1100F0A42EFFE435F0CD89F0A42DFEE435F0D8
:101F21008067EF4E7005BD80D780C3EF8BF0A4AC06
:101F3100F0EE8BF0A42CFCE435F0F8EF8AF0A42C41
:101F4100E5F038FCE433CB8DF0A42CFCE5F03BF854
:101F5100EE8AF0A42CFCE5F038F8E433CF89F0A444
:101F61002CFCE5F038CF3400CE89F0A42FFFE5F04A
:101F71003EFEE433C98DF0A42EFEE5F039CD8AF0A2
:101F8100A42FFFE5F03EFEE43DFD33D0E0FB50071A
:101F91000BBB000F02205BEC2CFCEF33FFEE33FE9A
:061FA100ED33FD022033C8
:101FA70075F020800E75F010800575F0087D007EB5
:101FB700007F003392D530D5031220E8EC33401070
:101FC700EF33FFEE33FEED33FDEC33FCD5F0ED22BE
:0E1FD700E5F0247EA2D513CC92E7CDCEFF22FA
:101FE500EDD2E7CD33EC3392D524814006E4FFFEF4
:101FF500FDFC22FCE4CFCECDCC24E0501174FF8053
:10200500EDC3CC13CCCD13CDCE13CECF13CF0470EF
:07201500F030D5DE0220E8E7
:10201C00E9D2E7C933E833F892D5EDD2E7CD33EC0A
:07202C0033FC5002B2D52283
:10203300EC30E7100FBF000C0EBE00080DBD00040E
:102043000BEB6014A2D5EB13FCED92E7FD2274FFBA
:10205300FCFDFEFF22E480F8A2D574FF13FC7D8013
:03206300E480EF27
:03000000022F5F6D
:0C2F5F00787FE4F6D8FD758107022FA6EC
:10206600BB010CE58229F582E5833AF583E022502F
:1020760006E92582F8E622BBFE06E92582F8E22279
:0D208600E58229F582E5833AF583E4932293
:10209300BC000BBE0029EF8DF084FFADF022E4CC31
:1020A300F875F008EF2FFFEE33FEEC33FCEE9DECFA
:1020B300984005FCEE9DFE0FD5F0E9E4CEFD22ED40
:1020C300F8F5F0EE8420D21CFEADF075F008EF2F8A
:1020D300FFED33FD4007985006D5F0F222C398FD7B
:0520E3000FD5F0EA2218
:0E20E800C3E49FFFE49EFEE49DFDE49CFC2209
:102F6B00023494E493A3F8E493A34003F68001F2B4
:102F7B0008DFF48029E493A3F85407240CC8C33367
:102F8B00C4540F4420C8834004F456800146F6DF36
:102F9B00E4800B0102040810204080902ECEE47ECA
:102FAB00019360BCA3FF543F30E509541FFEE4932B
:102FBB00A360010ECF54C025E060A840B8E493A3F2
:102FCB00FAE493A3F8E493A3C8C582C8CAC583CA1D
:102FDB00F0A3C8C582C8CAC583CADFE9DEE780BED5
:012F5E000072
:00000001FF
